{
  "contractName": "Color",
  "abi": [
    {
      "inputs": [],
      "stateMutability": "nonpayable",
      "type": "constructor"
    },
    {
      "anonymous": false,
      "inputs": [
        {
          "indexed": true,
          "internalType": "address",
          "name": "owner",
          "type": "address"
        },
        {
          "indexed": true,
          "internalType": "address",
          "name": "approved",
          "type": "address"
        },
        {
          "indexed": true,
          "internalType": "uint256",
          "name": "tokenId",
          "type": "uint256"
        }
      ],
      "name": "Approval",
      "type": "event"
    },
    {
      "anonymous": false,
      "inputs": [
        {
          "indexed": true,
          "internalType": "address",
          "name": "owner",
          "type": "address"
        },
        {
          "indexed": true,
          "internalType": "address",
          "name": "operator",
          "type": "address"
        },
        {
          "indexed": false,
          "internalType": "bool",
          "name": "approved",
          "type": "bool"
        }
      ],
      "name": "ApprovalForAll",
      "type": "event"
    },
    {
      "anonymous": false,
      "inputs": [
        {
          "indexed": true,
          "internalType": "address",
          "name": "from",
          "type": "address"
        },
        {
          "indexed": true,
          "internalType": "address",
          "name": "to",
          "type": "address"
        },
        {
          "indexed": true,
          "internalType": "uint256",
          "name": "tokenId",
          "type": "uint256"
        }
      ],
      "name": "Transfer",
      "type": "event"
    },
    {
      "inputs": [
        {
          "internalType": "address",
          "name": "to",
          "type": "address"
        },
        {
          "internalType": "uint256",
          "name": "tokenId",
          "type": "uint256"
        }
      ],
      "name": "approve",
      "outputs": [],
      "stateMutability": "nonpayable",
      "type": "function"
    },
    {
      "inputs": [
        {
          "internalType": "address",
          "name": "owner",
          "type": "address"
        }
      ],
      "name": "balanceOf",
      "outputs": [
        {
          "internalType": "uint256",
          "name": "",
          "type": "uint256"
        }
      ],
      "stateMutability": "view",
      "type": "function",
      "constant": true
    },
    {
      "inputs": [
        {
          "internalType": "uint256",
          "name": "",
          "type": "uint256"
        }
      ],
      "name": "colors",
      "outputs": [
        {
          "internalType": "bytes3",
          "name": "",
          "type": "bytes3"
        }
      ],
      "stateMutability": "view",
      "type": "function",
      "constant": true
    },
    {
      "inputs": [
        {
          "internalType": "uint256",
          "name": "tokenId",
          "type": "uint256"
        }
      ],
      "name": "getApproved",
      "outputs": [
        {
          "internalType": "address",
          "name": "",
          "type": "address"
        }
      ],
      "stateMutability": "view",
      "type": "function",
      "constant": true
    },
    {
      "inputs": [
        {
          "internalType": "address",
          "name": "owner",
          "type": "address"
        },
        {
          "internalType": "address",
          "name": "operator",
          "type": "address"
        }
      ],
      "name": "isApprovedForAll",
      "outputs": [
        {
          "internalType": "bool",
          "name": "",
          "type": "bool"
        }
      ],
      "stateMutability": "view",
      "type": "function",
      "constant": true
    },
    {
      "inputs": [],
      "name": "name",
      "outputs": [
        {
          "internalType": "string",
          "name": "",
          "type": "string"
        }
      ],
      "stateMutability": "view",
      "type": "function",
      "constant": true
    },
    {
      "inputs": [
        {
          "internalType": "uint256",
          "name": "tokenId",
          "type": "uint256"
        }
      ],
      "name": "ownerOf",
      "outputs": [
        {
          "internalType": "address",
          "name": "",
          "type": "address"
        }
      ],
      "stateMutability": "view",
      "type": "function",
      "constant": true
    },
    {
      "inputs": [
        {
          "internalType": "address",
          "name": "from",
          "type": "address"
        },
        {
          "internalType": "address",
          "name": "to",
          "type": "address"
        },
        {
          "internalType": "uint256",
          "name": "tokenId",
          "type": "uint256"
        }
      ],
      "name": "safeTransferFrom",
      "outputs": [],
      "stateMutability": "nonpayable",
      "type": "function"
    },
    {
      "inputs": [
        {
          "internalType": "address",
          "name": "from",
          "type": "address"
        },
        {
          "internalType": "address",
          "name": "to",
          "type": "address"
        },
        {
          "internalType": "uint256",
          "name": "tokenId",
          "type": "uint256"
        },
        {
          "internalType": "bytes",
          "name": "_data",
          "type": "bytes"
        }
      ],
      "name": "safeTransferFrom",
      "outputs": [],
      "stateMutability": "nonpayable",
      "type": "function"
    },
    {
      "inputs": [
        {
          "internalType": "address",
          "name": "operator",
          "type": "address"
        },
        {
          "internalType": "bool",
          "name": "approved",
          "type": "bool"
        }
      ],
      "name": "setApprovalForAll",
      "outputs": [],
      "stateMutability": "nonpayable",
      "type": "function"
    },
    {
      "inputs": [
        {
          "internalType": "bytes4",
          "name": "interfaceId",
          "type": "bytes4"
        }
      ],
      "name": "supportsInterface",
      "outputs": [
        {
          "internalType": "bool",
          "name": "",
          "type": "bool"
        }
      ],
      "stateMutability": "view",
      "type": "function",
      "constant": true
    },
    {
      "inputs": [],
      "name": "symbol",
      "outputs": [
        {
          "internalType": "string",
          "name": "",
          "type": "string"
        }
      ],
      "stateMutability": "view",
      "type": "function",
      "constant": true
    },
    {
      "inputs": [
        {
          "internalType": "uint256",
          "name": "tokenId",
          "type": "uint256"
        }
      ],
      "name": "tokenURI",
      "outputs": [
        {
          "internalType": "string",
          "name": "",
          "type": "string"
        }
      ],
      "stateMutability": "view",
      "type": "function",
      "constant": true
    },
    {
      "inputs": [
        {
          "internalType": "address",
          "name": "from",
          "type": "address"
        },
        {
          "internalType": "address",
          "name": "to",
          "type": "address"
        },
        {
          "internalType": "uint256",
          "name": "tokenId",
          "type": "uint256"
        }
      ],
      "name": "transferFrom",
      "outputs": [],
      "stateMutability": "nonpayable",
      "type": "function"
    },
    {
      "inputs": [
        {
          "internalType": "bytes3",
          "name": "_color",
          "type": "bytes3"
        }
      ],
      "name": "mint",
      "outputs": [],
      "stateMutability": "nonpayable",
      "type": "function"
    }
  ],
  "bytecode": "0x60806040523480156200001157600080fd5b506040518060400160405280600581526020017f436f6c6f720000000000000000000000000000000000000000000000000000008152506040518060400160405280600581526020017f434f4c4f52000000000000000000000000000000000000000000000000000000815250816000908051906020019062000096929190620000b8565b508060019080519060200190620000af929190620000b8565b505050620001cd565b828054620000c69062000168565b90600052602060002090601f016020900481019282620000ea576000855562000136565b82601f106200010557805160ff191683800117855562000136565b8280016001018555821562000136579182015b828111156200013557825182559160200191906001019062000118565b5b50905062000145919062000149565b5090565b5b80821115620001645760008160009055506001016200014a565b5090565b600060028204905060018216806200018157607f821691505b602082108114156200019857620001976200019e565b5b50919050565b7f4e487b7100000000000000000000000000000000000000000000000000000000600052602260045260246000fd5b61298680620001dd6000396000f3fe608060405234801561001057600080fd5b50600436106100f55760003560e01c806370a0823111610097578063b88d4fde11610066578063b88d4fde14610282578063bd11f69d1461029e578063c87b56dd146102ce578063e985e9c5146102fe576100f5565b806370a08231146101fc57806380bcefab1461022c57806395d89b4114610248578063a22cb46514610266576100f5565b8063095ea7b3116100d3578063095ea7b31461017857806323b872dd1461019457806342842e0e146101b05780636352211e146101cc576100f5565b806301ffc9a7146100fa57806306fdde031461012a578063081812fc14610148575b600080fd5b610114600480360381019061010f9190611aaf565b61032e565b6040516101219190611ea1565b60405180910390f35b610132610410565b60405161013f9190611ed7565b60405180910390f35b610162600480360381019061015d9190611b01565b6104a2565b60405161016f9190611e3a565b60405180910390f35b610192600480360381019061018d9190611a4a565b610527565b005b6101ae60048036038101906101a99190611944565b61063f565b005b6101ca60048036038101906101c59190611944565b61069f565b005b6101e660048036038101906101e19190611b01565b6106bf565b6040516101f39190611e3a565b60405180910390f35b610216600480360381019061021191906118df565b610771565b60405161022391906120d9565b60405180910390f35b61024660048036038101906102419190611a86565b610829565b005b6102506109a4565b60405161025d9190611ed7565b60405180910390f35b610280600480360381019061027b9190611a0e565b610a36565b005b61029c60048036038101906102979190611993565b610bb7565b005b6102b860048036038101906102b39190611b01565b610c19565b6040516102c59190611ebc565b60405180910390f35b6102e860048036038101906102e39190611b01565b610c50565b6040516102f59190611ed7565b60405180910390f35b61031860048036038101906103139190611908565b610cf7565b6040516103259190611ea1565b60405180910390f35b60007f80ac58cd000000000000000000000000000000000000000000000000000000007bffffffffffffffffffffffffffffffffffffffffffffffffffffffff1916827bffffffffffffffffffffffffffffffffffffffffffffffffffffffff191614806103f957507f5b5e139f000000000000000000000000000000000000000000000000000000007bffffffffffffffffffffffffffffffffffffffffffffffffffffffff1916827bffffffffffffffffffffffffffffffffffffffffffffffffffffffff1916145b80610409575061040882610d8b565b5b9050919050565b60606000805461041f9061232a565b80601f016020809104026020016040519081016040528092919081815260200182805461044b9061232a565b80156104985780601f1061046d57610100808354040283529160200191610498565b820191906000526020600020905b81548152906001019060200180831161047b57829003601f168201915b5050505050905090565b60006104ad82610df5565b6104ec576040517f08c379a00000000000000000000000000000000000000000000000000000000081526004016104e390612019565b60405180910390fd5b6004600083815260200190815260200160002060009054906101000a900473ffffffffffffffffffffffffffffffffffffffff169050919050565b6000610532826106bf565b90508073ffffffffffffffffffffffffffffffffffffffff168373ffffffffffffffffffffffffffffffffffffffff1614156105a3576040517f08c379a000000000000000000000000000000000000000000000000000000000815260040161059a90612099565b60405180910390fd5b8073ffffffffffffffffffffffffffffffffffffffff166105c2610e61565b73ffffffffffffffffffffffffffffffffffffffff1614806105f157506105f0816105eb610e61565b610cf7565b5b610630576040517f08c379a000000000000000000000000000000000000000000000000000000000815260040161062790611f99565b60405180910390fd5b61063a8383610e69565b505050565b61065061064a610e61565b82610f22565b61068f576040517f08c379a0000000000000000000000000000000000000000000000000000000008152600401610686906120b9565b60405180910390fd5b61069a838383611000565b505050565b6106ba83838360405180602001604052806000815250610bb7565b505050565b6000806002600084815260200190815260200160002060009054906101000a900473ffffffffffffffffffffffffffffffffffffffff169050600073ffffffffffffffffffffffffffffffffffffffff168173ffffffffffffffffffffffffffffffffffffffff161415610768576040517f08c379a000000000000000000000000000000000000000000000000000000000815260040161075f90611fd9565b60405180910390fd5b80915050919050565b60008073ffffffffffffffffffffffffffffffffffffffff168273ffffffffffffffffffffffffffffffffffffffff1614156107e2576040517f08c379a00000000000000000000000000000000000000000000000000000000081526004016107d990611fb9565b60405180910390fd5b600360008373ffffffffffffffffffffffffffffffffffffffff1673ffffffffffffffffffffffffffffffffffffffff168152602001908152602001600020549050919050565b60076000827cffffffffffffffffffffffffffffffffffffffffffffffffffffffffff19167cffffffffffffffffffffffffffffffffffffffffffffffffffffffffff1916815260200190815260200160002060009054906101000a900460ff16156108ca576040517f08c379a00000000000000000000000000000000000000000000000000000000081526004016108c190612079565b60405180910390fd5b60068190806001815401808255809150506001900390600052602060002090600a91828204019190066003029091909190916101000a81548162ffffff021916908360e81c0217905550600060016006805490506109289190612214565b9050610934338261125c565b600160076000847cffffffffffffffffffffffffffffffffffffffffffffffffffffffffff19167cffffffffffffffffffffffffffffffffffffffffffffffffffffffffff1916815260200190815260200160002060006101000a81548160ff0219169083151502179055505050565b6060600180546109b39061232a565b80601f01602080910402602001604051908101604052809291908181526020018280546109df9061232a565b8015610a2c5780601f10610a0157610100808354040283529160200191610a2c565b820191906000526020600020905b815481529060010190602001808311610a0f57829003601f168201915b5050505050905090565b610a3e610e61565b73ffffffffffffffffffffffffffffffffffffffff168273ffffffffffffffffffffffffffffffffffffffff161415610aac576040517f08c379a0000000000000000000000000000000000000000000000000000000008152600401610aa390611f59565b60405180910390fd5b8060056000610ab9610e61565b73ffffffffffffffffffffffffffffffffffffffff1673ffffffffffffffffffffffffffffffffffffffff16815260200190815260200160002060008473ffffffffffffffffffffffffffffffffffffffff1673ffffffffffffffffffffffffffffffffffffffff16815260200190815260200160002060006101000a81548160ff0219169083151502179055508173ffffffffffffffffffffffffffffffffffffffff16610b66610e61565b73ffffffffffffffffffffffffffffffffffffffff167f17307eab39ab6107e8899845ad3d59bd9653f200f220920489ca2b5937696c3183604051610bab9190611ea1565b60405180910390a35050565b610bc8610bc2610e61565b83610f22565b610c07576040517f08c379a0000000000000000000000000000000000000000000000000000000008152600401610bfe906120b9565b60405180910390fd5b610c138484848461142a565b50505050565b60068181548110610c2957600080fd5b90600052602060002090600a9182820401919006600302915054906101000a900460e81b81565b6060610c5b82610df5565b610c9a576040517f08c379a0000000000000000000000000000000000000000000000000000000008152600401610c9190612059565b60405180910390fd5b6000610ca4611486565b90506000815111610cc45760405180602001604052806000815250610cef565b80610cce8461149d565b604051602001610cdf929190611e16565b6040516020818303038152906040525b915050919050565b6000600560008473ffffffffffffffffffffffffffffffffffffffff1673ffffffffffffffffffffffffffffffffffffffff16815260200190815260200160002060008373ffffffffffffffffffffffffffffffffffffffff1673ffffffffffffffffffffffffffffffffffffffff16815260200190815260200160002060009054906101000a900460ff16905092915050565b60007f01ffc9a7000000000000000000000000000000000000000000000000000000007bffffffffffffffffffffffffffffffffffffffffffffffffffffffff1916827bffffffffffffffffffffffffffffffffffffffffffffffffffffffff1916149050919050565b60008073ffffffffffffffffffffffffffffffffffffffff166002600084815260200190815260200160002060009054906101000a900473ffffffffffffffffffffffffffffffffffffffff1673ffffffffffffffffffffffffffffffffffffffff1614159050919050565b600033905090565b816004600083815260200190815260200160002060006101000a81548173ffffffffffffffffffffffffffffffffffffffff021916908373ffffffffffffffffffffffffffffffffffffffff160217905550808273ffffffffffffffffffffffffffffffffffffffff16610edc836106bf565b73ffffffffffffffffffffffffffffffffffffffff167f8c5be1e5ebec7d5bd14f71427d1e84f3dd0314c0f7b2291e5b200ac8c7c3b92560405160405180910390a45050565b6000610f2d82610df5565b610f6c576040517f08c379a0000000000000000000000000000000000000000000000000000000008152600401610f6390611f79565b60405180910390fd5b6000610f77836106bf565b90508073ffffffffffffffffffffffffffffffffffffffff168473ffffffffffffffffffffffffffffffffffffffff161480610fe657508373ffffffffffffffffffffffffffffffffffffffff16610fce846104a2565b73ffffffffffffffffffffffffffffffffffffffff16145b80610ff75750610ff68185610cf7565b5b91505092915050565b8273ffffffffffffffffffffffffffffffffffffffff16611020826106bf565b73ffffffffffffffffffffffffffffffffffffffff1614611076576040517f08c379a000000000000000000000000000000000000000000000000000000000815260040161106d90612039565b60405180910390fd5b600073ffffffffffffffffffffffffffffffffffffffff168273ffffffffffffffffffffffffffffffffffffffff1614156110e6576040517f08c379a00000000000000000000000000000000000000000000000000000000081526004016110dd90611f39565b60405180910390fd5b6110f183838361164a565b6110fc600082610e69565b6001600360008573ffffffffffffffffffffffffffffffffffffffff1673ffffffffffffffffffffffffffffffffffffffff168152602001908152602001600020600082825461114c9190612214565b925050819055506001600360008473ffffffffffffffffffffffffffffffffffffffff1673ffffffffffffffffffffffffffffffffffffffff16815260200190815260200160002060008282546111a3919061218d565b92505081905550816002600083815260200190815260200160002060006101000a81548173ffffffffffffffffffffffffffffffffffffffff021916908373ffffffffffffffffffffffffffffffffffffffff160217905550808273ffffffffffffffffffffffffffffffffffffffff168473ffffffffffffffffffffffffffffffffffffffff167fddf252ad1be2c89b69c2b068fc378daa952ba7f163c4a11628f55a4df523b3ef60405160405180910390a4505050565b600073ffffffffffffffffffffffffffffffffffffffff168273ffffffffffffffffffffffffffffffffffffffff1614156112cc576040517f08c379a00000000000000000000000000000000000000000000000000000000081526004016112c390611ff9565b60405180910390fd5b6112d581610df5565b15611315576040517f08c379a000000000000000000000000000000000000000000000000000000000815260040161130c90611f19565b60405180910390fd5b6113216000838361164a565b6001600360008473ffffffffffffffffffffffffffffffffffffffff1673ffffffffffffffffffffffffffffffffffffffff1681526020019081526020016000206000828254611371919061218d565b92505081905550816002600083815260200190815260200160002060006101000a81548173ffffffffffffffffffffffffffffffffffffffff021916908373ffffffffffffffffffffffffffffffffffffffff160217905550808273ffffffffffffffffffffffffffffffffffffffff16600073ffffffffffffffffffffffffffffffffffffffff167fddf252ad1be2c89b69c2b068fc378daa952ba7f163c4a11628f55a4df523b3ef60405160405180910390a45050565b611435848484611000565b6114418484848461164f565b611480576040517f08c379a000000000000000000000000000000000000000000000000000000000815260040161147790611ef9565b60405180910390fd5b50505050565b606060405180602001604052806000815250905090565b606060008214156114e5576040518060400160405280600181526020017f30000000000000000000000000000000000000000000000000000000000000008152509050611645565b600082905060005b600082146115175780806115009061238d565b915050600a8261151091906121e3565b91506114ed565b60008167ffffffffffffffff811115611559577f4e487b7100000000000000000000000000000000000000000000000000000000600052604160045260246000fd5b6040519080825280601f01601f19166020018201604052801561158b5781602001600182028036833780820191505090505b5090505b6000851461163e576001826115a49190612214565b9150600a856115b391906123d6565b60306115bf919061218d565b60f81b8183815181106115fb577f4e487b7100000000000000000000000000000000000000000000000000000000600052603260045260246000fd5b60200101907effffffffffffffffffffffffffffffffffffffffffffffffffffffffffffff1916908160001a905350600a8561163791906121e3565b945061158f565b8093505050505b919050565b505050565b60006116708473ffffffffffffffffffffffffffffffffffffffff166117e6565b156117d9578373ffffffffffffffffffffffffffffffffffffffff1663150b7a02611699610e61565b8786866040518563ffffffff1660e01b81526004016116bb9493929190611e55565b602060405180830381600087803b1580156116d557600080fd5b505af192505050801561170657506040513d601f19601f820116820180604052508101906117039190611ad8565b60015b611789573d8060008114611736576040519150601f19603f3d011682016040523d82523d6000602084013e61173b565b606091505b50600081511415611781576040517f08c379a000000000000000000000000000000000000000000000000000000000815260040161177890611ef9565b60405180910390fd5b805181602001fd5b63150b7a0260e01b7bffffffffffffffffffffffffffffffffffffffffffffffffffffffff1916817bffffffffffffffffffffffffffffffffffffffffffffffffffffffff1916149150506117de565b600190505b949350505050565b600080823b905060008111915050919050565b600061180c61180784612119565b6120f4565b90508281526020810184848401111561182457600080fd5b61182f8482856122e8565b509392505050565b600081359050611846816128dd565b92915050565b60008135905061185b816128f4565b92915050565b6000813590506118708161290b565b92915050565b60008135905061188581612922565b92915050565b60008151905061189a81612922565b92915050565b600082601f8301126118b157600080fd5b81356118c18482602086016117f9565b91505092915050565b6000813590506118d981612939565b92915050565b6000602082840312156118f157600080fd5b60006118ff84828501611837565b91505092915050565b6000806040838503121561191b57600080fd5b600061192985828601611837565b925050602061193a85828601611837565b9150509250929050565b60008060006060848603121561195957600080fd5b600061196786828701611837565b935050602061197886828701611837565b9250506040611989868287016118ca565b9150509250925092565b600080600080608085870312156119a957600080fd5b60006119b787828801611837565b94505060206119c887828801611837565b93505060406119d9878288016118ca565b925050606085013567ffffffffffffffff8111156119f657600080fd5b611a02878288016118a0565b91505092959194509250565b60008060408385031215611a2157600080fd5b6000611a2f85828601611837565b9250506020611a408582860161184c565b9150509250929050565b60008060408385031215611a5d57600080fd5b6000611a6b85828601611837565b9250506020611a7c858286016118ca565b9150509250929050565b600060208284031215611a9857600080fd5b6000611aa684828501611861565b91505092915050565b600060208284031215611ac157600080fd5b6000611acf84828501611876565b91505092915050565b600060208284031215611aea57600080fd5b6000611af88482850161188b565b91505092915050565b600060208284031215611b1357600080fd5b6000611b21848285016118ca565b91505092915050565b611b3381612248565b82525050565b611b428161225a565b82525050565b611b5181612266565b82525050565b6000611b628261214a565b611b6c8185612160565b9350611b7c8185602086016122f7565b611b85816124c3565b840191505092915050565b6000611b9b82612155565b611ba58185612171565b9350611bb58185602086016122f7565b611bbe816124c3565b840191505092915050565b6000611bd482612155565b611bde8185612182565b9350611bee8185602086016122f7565b80840191505092915050565b6000611c07603283612171565b9150611c12826124d4565b604082019050919050565b6000611c2a601c83612171565b9150611c3582612523565b602082019050919050565b6000611c4d602483612171565b9150611c588261254c565b604082019050919050565b6000611c70601983612171565b9150611c7b8261259b565b602082019050919050565b6000611c93602c83612171565b9150611c9e826125c4565b604082019050919050565b6000611cb6603883612171565b9150611cc182612613565b604082019050919050565b6000611cd9602a83612171565b9150611ce482612662565b604082019050919050565b6000611cfc602983612171565b9150611d07826126b1565b604082019050919050565b6000611d1f602083612171565b9150611d2a82612700565b602082019050919050565b6000611d42602c83612171565b9150611d4d82612729565b604082019050919050565b6000611d65602983612171565b9150611d7082612778565b604082019050919050565b6000611d88602f83612171565b9150611d93826127c7565b604082019050919050565b6000611dab600c83612171565b9150611db682612816565b602082019050919050565b6000611dce602183612171565b9150611dd98261283f565b604082019050919050565b6000611df1603183612171565b9150611dfc8261288e565b604082019050919050565b611e10816122de565b82525050565b6000611e228285611bc9565b9150611e2e8284611bc9565b91508190509392505050565b6000602082019050611e4f6000830184611b2a565b92915050565b6000608082019050611e6a6000830187611b2a565b611e776020830186611b2a565b611e846040830185611e07565b8181036060830152611e968184611b57565b905095945050505050565b6000602082019050611eb66000830184611b39565b92915050565b6000602082019050611ed16000830184611b48565b92915050565b60006020820190508181036000830152611ef18184611b90565b905092915050565b60006020820190508181036000830152611f1281611bfa565b9050919050565b60006020820190508181036000830152611f3281611c1d565b9050919050565b60006020820190508181036000830152611f5281611c40565b9050919050565b60006020820190508181036000830152611f7281611c63565b9050919050565b60006020820190508181036000830152611f9281611c86565b9050919050565b60006020820190508181036000830152611fb281611ca9565b9050919050565b60006020820190508181036000830152611fd281611ccc565b9050919050565b60006020820190508181036000830152611ff281611cef565b9050919050565b6000602082019050818103600083015261201281611d12565b9050919050565b6000602082019050818103600083015261203281611d35565b9050919050565b6000602082019050818103600083015261205281611d58565b9050919050565b6000602082019050818103600083015261207281611d7b565b9050919050565b6000602082019050818103600083015261209281611d9e565b9050919050565b600060208201905081810360008301526120b281611dc1565b9050919050565b600060208201905081810360008301526120d281611de4565b9050919050565b60006020820190506120ee6000830184611e07565b92915050565b60006120fe61210f565b905061210a828261235c565b919050565b6000604051905090565b600067ffffffffffffffff82111561213457612133612494565b5b61213d826124c3565b9050602081019050919050565b600081519050919050565b600081519050919050565b600082825260208201905092915050565b600082825260208201905092915050565b600081905092915050565b6000612198826122de565b91506121a3836122de565b9250827fffffffffffffffffffffffffffffffffffffffffffffffffffffffffffffffff038211156121d8576121d7612407565b5b828201905092915050565b60006121ee826122de565b91506121f9836122de565b92508261220957612208612436565b5b828204905092915050565b600061221f826122de565b915061222a836122de565b92508282101561223d5761223c612407565b5b828203905092915050565b6000612253826122be565b9050919050565b60008115159050919050565b60007fffffff000000000000000000000000000000000000000000000000000000000082169050919050565b60007fffffffff0000000000000000000000000000000000000000000000000000000082169050919050565b600073ffffffffffffffffffffffffffffffffffffffff82169050919050565b6000819050919050565b82818337600083830152505050565b60005b838110156123155780820151818401526020810190506122fa565b83811115612324576000848401525b50505050565b6000600282049050600182168061234257607f821691505b6020821081141561235657612355612465565b5b50919050565b612365826124c3565b810181811067ffffffffffffffff8211171561238457612383612494565b5b80604052505050565b6000612398826122de565b91507fffffffffffffffffffffffffffffffffffffffffffffffffffffffffffffffff8214156123cb576123ca612407565b5b600182019050919050565b60006123e1826122de565b91506123ec836122de565b9250826123fc576123fb612436565b5b828206905092915050565b7f4e487b7100000000000000000000000000000000000000000000000000000000600052601160045260246000fd5b7f4e487b7100000000000000000000000000000000000000000000000000000000600052601260045260246000fd5b7f4e487b7100000000000000000000000000000000000000000000000000000000600052602260045260246000fd5b7f4e487b7100000000000000000000000000000000000000000000000000000000600052604160045260246000fd5b6000601f19601f8301169050919050565b7f4552433732313a207472616e7366657220746f206e6f6e20455243373231526560008201527f63656976657220696d706c656d656e7465720000000000000000000000000000602082015250565b7f4552433732313a20746f6b656e20616c7265616479206d696e74656400000000600082015250565b7f4552433732313a207472616e7366657220746f20746865207a65726f2061646460008201527f7265737300000000000000000000000000000000000000000000000000000000602082015250565b7f4552433732313a20617070726f766520746f2063616c6c657200000000000000600082015250565b7f4552433732313a206f70657261746f7220717565727920666f72206e6f6e657860008201527f697374656e7420746f6b656e0000000000000000000000000000000000000000602082015250565b7f4552433732313a20617070726f76652063616c6c6572206973206e6f74206f7760008201527f6e6572206e6f7220617070726f76656420666f7220616c6c0000000000000000602082015250565b7f4552433732313a2062616c616e636520717565727920666f7220746865207a6560008201527f726f206164647265737300000000000000000000000000000000000000000000602082015250565b7f4552433732313a206f776e657220717565727920666f72206e6f6e657869737460008201527f656e7420746f6b656e0000000000000000000000000000000000000000000000602082015250565b7f4552433732313a206d696e7420746f20746865207a65726f2061646472657373600082015250565b7f4552433732313a20617070726f76656420717565727920666f72206e6f6e657860008201527f697374656e7420746f6b656e0000000000000000000000000000000000000000602082015250565b7f4552433732313a207472616e73666572206f6620746f6b656e2074686174206960008201527f73206e6f74206f776e0000000000000000000000000000000000000000000000602082015250565b7f4552433732314d657461646174613a2055524920717565727920666f72206e6f60008201527f6e6578697374656e7420746f6b656e0000000000000000000000000000000000602082015250565b7f636f6c6f72206578697374730000000000000000000000000000000000000000600082015250565b7f4552433732313a20617070726f76616c20746f2063757272656e74206f776e6560008201527f7200000000000000000000000000000000000000000000000000000000000000602082015250565b7f4552433732313a207472616e736665722063616c6c6572206973206e6f74206f60008201527f776e6572206e6f7220617070726f766564000000000000000000000000000000602082015250565b6128e681612248565b81146128f157600080fd5b50565b6128fd8161225a565b811461290857600080fd5b50565b61291481612266565b811461291f57600080fd5b50565b61292b81612292565b811461293657600080fd5b50565b612942816122de565b811461294d57600080fd5b5056fea2646970667358221220dba3922b3be908b90ed740f237e2174f1352f1ccb39227bace49de26a009241164736f6c63430008030033",
  "immutableReferences": {},
  "source": "// SPDX-License-Identifier: MIT\npragma solidity >=0.8.0 <0.9.0;\n\nimport '@openzeppelin/contracts/token/ERC721/ERC721.sol';\n\ncontract Color is ERC721 {\n\n  bytes3[] public colors;\n  mapping(bytes3 => bool) private _colorExists;\n\n  constructor() ERC721(\"Color\", \"COLOR\")  {\n  }\n\n  // E.G. color = \"#FFFFFF\"\n  function mint(bytes3 _color) public {\n    require(!_colorExists[_color], \"color exists\");\n    colors.push(_color);\n    uint _id = colors.length -1;\n    _mint(msg.sender, _id);\n    _colorExists[_color] = true;\n  }\n}",
  "sourcePath": "C:/Users/ptars/treinamento/blockchain/rsk/erc721/dapp-colors/contracts/Color.sol",
  "compiler": {
    "name": "solc",
    "version": "0.8.3+commit.8d00100c.Emscripten.clang"
  },
  "schemaVersion": "3.3.4",
  "updatedAt": "2021-04-13T21:30:58.601Z",
  "networkType": "ethereum",
  "devdoc": {
    "kind": "dev",
    "methods": {
      "approve(address,uint256)": {
        "details": "See {IERC721-approve}."
      },
      "balanceOf(address)": {
        "details": "See {IERC721-balanceOf}."
      },
      "getApproved(uint256)": {
        "details": "See {IERC721-getApproved}."
      },
      "isApprovedForAll(address,address)": {
        "details": "See {IERC721-isApprovedForAll}."
      },
      "name()": {
        "details": "See {IERC721Metadata-name}."
      },
      "ownerOf(uint256)": {
        "details": "See {IERC721-ownerOf}."
      },
      "safeTransferFrom(address,address,uint256)": {
        "details": "See {IERC721-safeTransferFrom}."
      },
      "safeTransferFrom(address,address,uint256,bytes)": {
        "details": "See {IERC721-safeTransferFrom}."
      },
      "setApprovalForAll(address,bool)": {
        "details": "See {IERC721-setApprovalForAll}."
      },
      "supportsInterface(bytes4)": {
        "details": "See {IERC165-supportsInterface}."
      },
      "symbol()": {
        "details": "See {IERC721Metadata-symbol}."
      },
      "tokenURI(uint256)": {
        "details": "See {IERC721Metadata-tokenURI}."
      },
      "transferFrom(address,address,uint256)": {
        "details": "See {IERC721-transferFrom}."
      }
    },
    "version": 1
  },
  "userdoc": {
    "kind": "user",
    "methods": {},
    "version": 1
  }
}